{
  "transactions": [
    {
      "hash": "0x40cc4789178c23e2658407b6eb5b3249b71f9a4736759f0dbf783ea43a3e8004",
      "transactionType": "CALL",
      "contractName": null,
      "contractAddress": "0x779877A7B0D9E8603169DdbD7836e478b4624789",
      "function": "transferAndCall(address,uint256,bytes)",
      "arguments": [
        "0x9DdfaCa8183c41ad55329BdeeD9F6A8d53168B1B",
        "3000000000000000000",
        "0x212f47c0d5728acc45221fda369fd6aa133a8697cf33719e04760bc7577901b5"
      ],
      "transaction": {
        "from": "0x2b6acFD06398C2E154866e3c29FbE440E52AE836",
        "to": "0x779877A7B0D9E8603169DdbD7836e478b4624789",
        "gas": "0x1c1ff",
        "value": "0x0",
        "input": "0x4000aea00000000000000000000000009ddfaca8183c41ad55329bdeed9f6a8d53168b1b00000000000000000000000000000000000000000000000029a2241af62c000000000000000000000000000000000000000000000000000000000000000000600000000000000000000000000000000000000000000000000000000000000020212f47c0d5728acc45221fda369fd6aa133a8697cf33719e04760bc7577901b5",
        "nonce": "0x5",
        "chainId": "0xaa36a7"
      },
      "additionalContracts": [],
      "isFixedGasLimit": false
    }
  ],
  "receipts": [
    {
      "status": "0x1",
      "cumulativeGasUsed": "0x24cdd2",
      "logs": [
        {
          "address": "0x779877A7B0D9E8603169DdbD7836e478b4624789",
          "topics": [
            "0xddf252ad1be2c89b69c2b068fc378daa952ba7f163c4a11628f55a4df523b3ef",
            "0x0000000000000000000000002b6acfd06398c2e154866e3c29fbe440e52ae836",
            "0x0000000000000000000000009ddfaca8183c41ad55329bdeed9f6a8d53168b1b"
          ],
          "data": "0x00000000000000000000000000000000000000000000000029a2241af62c0000",
          "blockHash": "0xba2f9215904a993b19052103dfb512ad5f50aa4ba296292633313220e9c02073",
          "blockNumber": "0x68f81a",
          "transactionHash": "0x40cc4789178c23e2658407b6eb5b3249b71f9a4736759f0dbf783ea43a3e8004",
          "transactionIndex": "0x1f",
          "logIndex": "0x2b",
          "removed": false
        },
        {
          "address": "0x779877A7B0D9E8603169DdbD7836e478b4624789",
          "topics": [
            "0xe19260aff97b920c7df27010903aeb9c8d2be5d310a2c67824cf3f15396e4c16",
            "0x0000000000000000000000002b6acfd06398c2e154866e3c29fbe440e52ae836",
            "0x0000000000000000000000009ddfaca8183c41ad55329bdeed9f6a8d53168b1b"
          ],
          "data": "0x00000000000000000000000000000000000000000000000029a2241af62c000000000000000000000000000000000000000000000000000000000000000000400000000000000000000000000000000000000000000000000000000000000020212f47c0d5728acc45221fda369fd6aa133a8697cf33719e04760bc7577901b5",
          "blockHash": "0xba2f9215904a993b19052103dfb512ad5f50aa4ba296292633313220e9c02073",
          "blockNumber": "0x68f81a",
          "transactionHash": "0x40cc4789178c23e2658407b6eb5b3249b71f9a4736759f0dbf783ea43a3e8004",
          "transactionIndex": "0x1f",
          "logIndex": "0x2c",
          "removed": false
        },
        {
          "address": "0x9DdfaCa8183c41ad55329BdeeD9F6A8d53168B1B",
          "topics": [
            "0x1ced9348ff549fceab2ac57cd3a9de38edaaab274b725ee82c23e8fc8c4eec7a",
            "0x212f47c0d5728acc45221fda369fd6aa133a8697cf33719e04760bc7577901b5"
          ],
          "data": "0x000000000000000000000000000000000000000000000000000000000000000000000000000000000000000000000000000000000000000029a2241af62c0000",
          "blockHash": "0xba2f9215904a993b19052103dfb512ad5f50aa4ba296292633313220e9c02073",
          "blockNumber": "0x68f81a",
          "transactionHash": "0x40cc4789178c23e2658407b6eb5b3249b71f9a4736759f0dbf783ea43a3e8004",
          "transactionIndex": "0x1f",
          "logIndex": "0x2d",
          "removed": false
        }
      ],
      "logsBloom": "0x00000004000000000000400000000000000000000020000000000000020000000000000000000000000000000000000000000000000000000000001000000000000000000000000000000028000000000000000000000000000020000020000008000000000000001000000000000000000000000000000000000010000040000000000000000000000000010000800000000020000000000000000000000000000000000000000000000800010000000000000000000000000004000000000000000002000000000000000000000000000000000000000100000000000000000010000000000080800000000000000000000000000000000000000000000000",
      "type": "0x2",
      "transactionHash": "0x40cc4789178c23e2658407b6eb5b3249b71f9a4736759f0dbf783ea43a3e8004",
      "transactionIndex": "0x1f",
      "blockHash": "0xba2f9215904a993b19052103dfb512ad5f50aa4ba296292633313220e9c02073",
      "blockNumber": "0x68f81a",
      "gasUsed": "0x133b1",
      "effectiveGasPrice": "0x184c47b24e",
      "from": "0x2b6acFD06398C2E154866e3c29FbE440E52AE836",
      "to": "0x779877A7B0D9E8603169DdbD7836e478b4624789",
      "contractAddress": null
    }
  ],
  "libraries": [],
  "pending": [],
  "returns": {},
  "timestamp": 1728980981,
  "chain": 11155111,
  "commit": "c2464b2"
}